{
  "_format": "hh-sol-artifact-1",
  "contractName": "Voting",
  "sourceName": "contracts/Voting.sol",
  "abi": [
    {
      "inputs": [],
      "stateMutability": "nonpayable",
      "type": "constructor"
    },
    {
      "anonymous": false,
      "inputs": [
        {
          "indexed": false,
          "internalType": "address",
          "name": "user",
          "type": "address"
        },
        {
          "indexed": false,
          "internalType": "string",
          "name": "username",
          "type": "string"
        }
      ],
      "name": "UserCondidate",
      "type": "event"
    },
    {
      "anonymous": false,
      "inputs": [
        {
          "indexed": false,
          "internalType": "address",
          "name": "user",
          "type": "address"
        }
      ],
      "name": "UserLoggedIn",
      "type": "event"
    },
    {
      "anonymous": false,
      "inputs": [
        {
          "indexed": false,
          "internalType": "address",
          "name": "user",
          "type": "address"
        },
        {
          "indexed": false,
          "internalType": "string",
          "name": "username",
          "type": "string"
        }
      ],
      "name": "UserRegistered",
      "type": "event"
    },
    {
      "inputs": [
        {
          "internalType": "uint256",
          "name": "",
          "type": "uint256"
        }
      ],
      "name": "candidates",
      "outputs": [
        {
          "internalType": "int256",
          "name": "id",
          "type": "int256"
        },
        {
          "internalType": "string",
          "name": "name",
          "type": "string"
        },
        {
          "internalType": "uint256",
          "name": "voteCount",
          "type": "uint256"
        }
      ],
      "stateMutability": "view",
      "type": "function"
    },
    {
      "inputs": [
        {
          "internalType": "address",
          "name": "",
          "type": "address"
        }
      ],
      "name": "condidatesapplied",
      "outputs": [
        {
          "internalType": "bool",
          "name": "",
          "type": "bool"
        }
      ],
      "stateMutability": "view",
      "type": "function"
    },
    {
      "inputs": [
        {
          "internalType": "uint256",
          "name": "_candidateId",
          "type": "uint256"
        }
      ],
      "name": "getCandidate",
      "outputs": [
        {
          "internalType": "string",
          "name": "name",
          "type": "string"
        },
        {
          "internalType": "uint256",
          "name": "voteCount",
          "type": "uint256"
        }
      ],
      "stateMutability": "view",
      "type": "function"
    },
    {
      "inputs": [],
      "name": "getCandidateCount",
      "outputs": [
        {
          "internalType": "uint256",
          "name": "",
          "type": "uint256"
        }
      ],
      "stateMutability": "view",
      "type": "function"
    },
    {
      "inputs": [],
      "name": "getCandidates",
      "outputs": [
        {
          "components": [
            {
              "internalType": "int256",
              "name": "id",
              "type": "int256"
            },
            {
              "internalType": "string",
              "name": "name",
              "type": "string"
            },
            {
              "internalType": "uint256",
              "name": "voteCount",
              "type": "uint256"
            }
          ],
          "internalType": "struct Voting.Candidate[]",
          "name": "",
          "type": "tuple[]"
        }
      ],
      "stateMutability": "view",
      "type": "function"
    },
    {
      "inputs": [],
      "name": "getTest",
      "outputs": [
        {
          "internalType": "string",
          "name": "",
          "type": "string"
        }
      ],
      "stateMutability": "pure",
      "type": "function"
    },
    {
      "inputs": [],
      "name": "getUsername",
      "outputs": [
        {
          "internalType": "string",
          "name": "",
          "type": "string"
        }
      ],
      "stateMutability": "view",
      "type": "function"
    },
    {
      "inputs": [],
      "name": "getUsernameOfSender",
      "outputs": [
        {
          "internalType": "string",
          "name": "",
          "type": "string"
        }
      ],
      "stateMutability": "view",
      "type": "function"
    },
    {
      "inputs": [],
      "name": "login",
      "outputs": [
        {
          "internalType": "string",
          "name": "",
          "type": "string"
        }
      ],
      "stateMutability": "nonpayable",
      "type": "function"
    },
    {
      "inputs": [],
      "name": "makeMeCondidate",
      "outputs": [],
      "stateMutability": "payable",
      "type": "function"
    },
    {
      "inputs": [
        {
          "internalType": "string",
          "name": "username",
          "type": "string"
        }
      ],
      "name": "register",
      "outputs": [],
      "stateMutability": "payable",
      "type": "function"
    },
    {
      "inputs": [
        {
          "internalType": "uint256",
          "name": "_candidateId",
          "type": "uint256"
        }
      ],
      "name": "vote",
      "outputs": [],
      "stateMutability": "payable",
      "type": "function"
    },
    {
      "inputs": [
        {
          "internalType": "address",
          "name": "",
          "type": "address"
        }
      ],
      "name": "voters",
      "outputs": [
        {
          "internalType": "bool",
          "name": "",
          "type": "bool"
        }
      ],
      "stateMutability": "view",
      "type": "function"
    }
  ],
  "bytecode": "0x60806040526000805534801561001457600080fd5b506122c4806100246000396000f3fe6080604052600436106100c25760003560e01c80637e8c186d1161007f578063b34e97e811610059578063b34e97e814610274578063c9b3c76b1461029f578063ed5fe08b146102dc578063f2c298be146102e6576100c2565b80637e8c186d146101e1578063a3ec138d1461020c578063a8cd0a8014610249576100c2565b80630121b93f146100c757806306a49fce146100e357806330a563471461010e5780633477ee2e1461013957806335b8e82014610178578063681f3e6d146101b6575b600080fd5b6100e160048036038101906100dc919061149c565b610302565b005b3480156100ef57600080fd5b506100f8610566565b6040516101059190611693565b60405180910390f35b34801561011a57600080fd5b5061012361066b565b60405161013091906116c4565b60405180910390f35b34801561014557600080fd5b50610160600480360381019061015b919061149c565b610678565b60405161016f93929190611738565b60405180910390f35b34801561018457600080fd5b5061019f600480360381019061019a919061149c565b61073a565b6040516101ad929190611776565b60405180910390f35b3480156101c257600080fd5b506101cb610856565b6040516101d891906117a6565b60405180910390f35b3480156101ed57600080fd5b506101f66109b1565b60405161020391906117a6565b60405180910390f35b34801561021857600080fd5b50610233600480360381019061022e9190611826565b610b0c565b604051610240919061186e565b60405180910390f35b34801561025557600080fd5b5061025e610b2c565b60405161026b91906117a6565b60405180910390f35b34801561028057600080fd5b50610289610b69565b60405161029691906117a6565b60405180910390f35b3480156102ab57600080fd5b506102c660048036038101906102c19190611826565b610cfb565b6040516102d3919061186e565b60405180910390f35b6102e4610d1b565b005b61030060048036038101906102fb91906119be565b6110d3565b005b600360003373ffffffffffffffffffffffffffffffffffffffff1673ffffffffffffffffffffffffffffffffffffffff16815260200190815260200160002060009054906101000a900460ff161561038f576040517f08c379a000000000000000000000000000000000000000000000000000000000815260040161038690611a53565b60405180910390fd5b600081101580156103a4575060058054905081105b6103e3576040517f08c379a00000000000000000000000000000000000000000000000000000000081526004016103da90611abf565b60405180910390fd5b6001600360003373ffffffffffffffffffffffffffffffffffffffff1673ffffffffffffffffffffffffffffffffffffffff16815260200190815260200160002060006101000a81548160ff0219169083151502179055506105286040518060400160405280600e81526020017f20257320766f746520746f202573000000000000000000000000000000000000815250336005848154811061048957610488611adf565b5b906000526020600020906003020160010180546104a590611b3d565b80601f01602080910402602001604051908101604052809291908181526020018280546104d190611b3d565b801561051e5780601f106104f35761010080835404028352916020019161051e565b820191906000526020600020905b81548152906001019060200180831161050157829003601f168201915b50505050506112c4565b6005818154811061053c5761053b611adf565b5b9060005260206000209060030201600201600081548092919061055e90611b9d565b919050555050565b60606005805480602002602001604051908101604052809291908181526020016000905b828210156106625783829060005260206000209060030201604051806060016040529081600082015481526020016001820180546105c790611b3d565b80601f01602080910402602001604051908101604052809291908181526020018280546105f390611b3d565b80156106405780601f1061061557610100808354040283529160200191610640565b820191906000526020600020905b81548152906001019060200180831161062357829003601f168201915b505050505081526020016002820154815250508152602001906001019061058a565b50505050905090565b6000600580549050905090565b6005818154811061068857600080fd5b90600052602060002090600302016000915090508060000154908060010180546106b190611b3d565b80601f01602080910402602001604051908101604052809291908181526020018280546106dd90611b3d565b801561072a5780601f106106ff5761010080835404028352916020019161072a565b820191906000526020600020905b81548152906001019060200180831161070d57829003601f168201915b5050505050908060020154905083565b60606000808310158015610752575060058054905083105b610791576040517f08c379a000000000000000000000000000000000000000000000000000000000815260040161078890611abf565b60405180910390fd5b6000600584815481106107a7576107a6611adf565b5b906000526020600020906003020190508060010181600201548180546107cc90611b3d565b80601f01602080910402602001604051908101604052809291908181526020018280546107f890611b3d565b80156108455780601f1061081a57610100808354040283529160200191610845565b820191906000526020600020905b81548152906001019060200180831161082857829003601f168201915b505050505091509250925050915091565b6060600160003373ffffffffffffffffffffffffffffffffffffffff1673ffffffffffffffffffffffffffffffffffffffff16815260200190815260200160002060009054906101000a900460ff166108e4576040517f08c379a00000000000000000000000000000000000000000000000000000000081526004016108db90611c31565b60405180910390fd5b600260003373ffffffffffffffffffffffffffffffffffffffff1673ffffffffffffffffffffffffffffffffffffffff168152602001908152602001600020805461092e90611b3d565b80601f016020809104026020016040519081016040528092919081815260200182805461095a90611b3d565b80156109a75780601f1061097c576101008083540402835291602001916109a7565b820191906000526020600020905b81548152906001019060200180831161098a57829003601f168201915b5050505050905090565b6060600160003373ffffffffffffffffffffffffffffffffffffffff1673ffffffffffffffffffffffffffffffffffffffff16815260200190815260200160002060009054906101000a900460ff16610a3f576040517f08c379a0000000000000000000000000000000000000000000000000000000008152600401610a3690611c31565b60405180910390fd5b600260003373ffffffffffffffffffffffffffffffffffffffff1673ffffffffffffffffffffffffffffffffffffffff1681526020019081526020016000208054610a8990611b3d565b80601f0160208091040260200160405190810160405280929190818152602001828054610ab590611b3d565b8015610b025780601f10610ad757610100808354040283529160200191610b02565b820191906000526020600020905b815481529060010190602001808311610ae557829003601f168201915b5050505050905090565b60036020528060005260406000206000915054906101000a900460ff1681565b60606040518060400160405280600c81526020017f54657374204d6573736167650000000000000000000000000000000000000000815250905090565b6060600160003373ffffffffffffffffffffffffffffffffffffffff1673ffffffffffffffffffffffffffffffffffffffff16815260200190815260200160002060009054906101000a900460ff16610bf7576040517f08c379a0000000000000000000000000000000000000000000000000000000008152600401610bee90611c9d565b60405180910390fd5b7f8d15fde878cff665868ed7579eb5081db6508d4249df61dcdd7699a5301d987433604051610c269190611ccc565b60405180910390a1600260003373ffffffffffffffffffffffffffffffffffffffff1673ffffffffffffffffffffffffffffffffffffffff1681526020019081526020016000208054610c7890611b3d565b80601f0160208091040260200160405190810160405280929190818152602001828054610ca490611b3d565b8015610cf15780601f10610cc657610100808354040283529160200191610cf1565b820191906000526020600020905b815481529060010190602001808311610cd457829003601f168201915b5050505050905090565b60046020528060005260406000206000915054906101000a900460ff1681565b600460003373ffffffffffffffffffffffffffffffffffffffff1673ffffffffffffffffffffffffffffffffffffffff16815260200190815260200160002060009054906101000a900460ff1615610da8576040517f08c379a0000000000000000000000000000000000000000000000000000000008152600401610d9f90611d33565b60405180910390fd5b6001600460003373ffffffffffffffffffffffffffffffffffffffff1673ffffffffffffffffffffffffffffffffffffffff16815260200190815260200160002060006101000a81548160ff021916908315150217905550600560405180606001604052806000548152602001600260003373ffffffffffffffffffffffffffffffffffffffff1673ffffffffffffffffffffffffffffffffffffffff1681526020019081526020016000208054610e5f90611b3d565b80601f0160208091040260200160405190810160405280929190818152602001828054610e8b90611b3d565b8015610ed85780601f10610ead57610100808354040283529160200191610ed8565b820191906000526020600020905b815481529060010190602001808311610ebb57829003601f168201915b5050505050815260200160008152509080600181540180825580915050600190039060005260206000209060030201600090919091909150600082015181600001556020820151816001019081610f2f9190611eff565b50604082015181600201555050600080815480929190610f4e90611fd1565b919050555061105a6040518060400160405280601381526020017f2025732077697468206164647265737320257300000000000000000000000000815250600260003373ffffffffffffffffffffffffffffffffffffffff1673ffffffffffffffffffffffffffffffffffffffff1681526020019081526020016000208054610fd690611b3d565b80601f016020809104026020016040519081016040528092919081815260200182805461100290611b3d565b801561104f5780601f106110245761010080835404028352916020019161104f565b820191906000526020600020905b81548152906001019060200180831161103257829003601f168201915b505050505033611363565b7f249b799d1abf6382f435c2bdbd2fe704b5e053aaee4f68240d227391d4c1e3d133600260003373ffffffffffffffffffffffffffffffffffffffff1673ffffffffffffffffffffffffffffffffffffffff1681526020019081526020016000206040516110c992919061209d565b60405180910390a1565b600160003373ffffffffffffffffffffffffffffffffffffffff1673ffffffffffffffffffffffffffffffffffffffff16815260200190815260200160002060009054906101000a900460ff1615611160576040517f08c379a000000000000000000000000000000000000000000000000000000000815260040161115790612119565b60405180910390fd5b60008151116111a4576040517f08c379a000000000000000000000000000000000000000000000000000000000815260040161119b90612185565b60405180910390fd5b60018060003373ffffffffffffffffffffffffffffffffffffffff1673ffffffffffffffffffffffffffffffffffffffff16815260200190815260200160002060006101000a81548160ff02191690831515021790555080600260003373ffffffffffffffffffffffffffffffffffffffff1673ffffffffffffffffffffffffffffffffffffffff16815260200190815260200160002090816112479190611eff565b506112886040518060400160405280601281526020017f726567697374657220257320617320257320000000000000000000000000000081525033836112c4565b7f48cac28ad4dc618e15f4c2dd5e97751182f166de97b25618318b2112aa951a2f33826040516112b99291906121a5565b60405180910390a150565b61135e8383836040516024016112dc939291906121d5565b6040516020818303038152906040527fe0e9ad4f000000000000000000000000000000000000000000000000000000007bffffffffffffffffffffffffffffffffffffffffffffffffffffffff19166020820180517bffffffffffffffffffffffffffffffffffffffffffffffffffffffff8381831617835250505050611402565b505050565b6113fd83838360405160240161137b9392919061221a565b6040516020818303038152906040527f95ed0195000000000000000000000000000000000000000000000000000000007bffffffffffffffffffffffffffffffffffffffffffffffffffffffff19166020820180517bffffffffffffffffffffffffffffffffffffffffffffffffffffffff8381831617835250505050611402565b505050565b6114198161141161141c61143d565b63ffffffff16565b50565b60006a636f6e736f6c652e6c6f679050600080835160208501845afa505050565b611448819050919050565b61145061225f565b565b6000604051905090565b600080fd5b600080fd5b6000819050919050565b61147981611466565b811461148457600080fd5b50565b60008135905061149681611470565b92915050565b6000602082840312156114b2576114b161145c565b5b60006114c084828501611487565b91505092915050565b600081519050919050565b600082825260208201905092915050565b6000819050602082019050919050565b6000819050919050565b611508816114f5565b82525050565b600081519050919050565b600082825260208201905092915050565b60005b8381101561154857808201518184015260208101905061152d565b60008484015250505050565b6000601f19601f8301169050919050565b60006115708261150e565b61157a8185611519565b935061158a81856020860161152a565b61159381611554565b840191505092915050565b6115a781611466565b82525050565b60006060830160008301516115c560008601826114ff565b50602083015184820360208601526115dd8282611565565b91505060408301516115f2604086018261159e565b508091505092915050565b600061160983836115ad565b905092915050565b6000602082019050919050565b6000611629826114c9565b61163381856114d4565b935083602082028501611645856114e5565b8060005b85811015611681578484038952815161166285826115fd565b945061166d83611611565b925060208a01995050600181019050611649565b50829750879550505050505092915050565b600060208201905081810360008301526116ad818461161e565b905092915050565b6116be81611466565b82525050565b60006020820190506116d960008301846116b5565b92915050565b6116e8816114f5565b82525050565b600082825260208201905092915050565b600061170a8261150e565b61171481856116ee565b935061172481856020860161152a565b61172d81611554565b840191505092915050565b600060608201905061174d60008301866116df565b818103602083015261175f81856116ff565b905061176e60408301846116b5565b949350505050565b6000604082019050818103600083015261179081856116ff565b905061179f60208301846116b5565b9392505050565b600060208201905081810360008301526117c081846116ff565b905092915050565b600073ffffffffffffffffffffffffffffffffffffffff82169050919050565b60006117f3826117c8565b9050919050565b611803816117e8565b811461180e57600080fd5b50565b600081359050611820816117fa565b92915050565b60006020828403121561183c5761183b61145c565b5b600061184a84828501611811565b91505092915050565b60008115159050919050565b61186881611853565b82525050565b6000602082019050611883600083018461185f565b92915050565b600080fd5b600080fd5b7f4e487b7100000000000000000000000000000000000000000000000000000000600052604160045260246000fd5b6118cb82611554565b810181811067ffffffffffffffff821117156118ea576118e9611893565b5b80604052505050565b60006118fd611452565b905061190982826118c2565b919050565b600067ffffffffffffffff82111561192957611928611893565b5b61193282611554565b9050602081019050919050565b82818337600083830152505050565b600061196161195c8461190e565b6118f3565b90508281526020810184848401111561197d5761197c61188e565b5b61198884828561193f565b509392505050565b600082601f8301126119a5576119a4611889565b5b81356119b584826020860161194e565b91505092915050565b6000602082840312156119d4576119d361145c565b5b600082013567ffffffffffffffff8111156119f2576119f1611461565b5b6119fe84828501611990565b91505092915050565b7f596f75206861766520616c726561647920766f7465642e000000000000000000600082015250565b6000611a3d6017836116ee565b9150611a4882611a07565b602082019050919050565b60006020820190508181036000830152611a6c81611a30565b9050919050565b7f496e76616c69642063616e6469646174652049442e0000000000000000000000600082015250565b6000611aa96015836116ee565b9150611ab482611a73565b602082019050919050565b60006020820190508181036000830152611ad881611a9c565b9050919050565b7f4e487b7100000000000000000000000000000000000000000000000000000000600052603260045260246000fd5b7f4e487b7100000000000000000000000000000000000000000000000000000000600052602260045260246000fd5b60006002820490506001821680611b5557607f821691505b602082108103611b6857611b67611b0e565b5b50919050565b7f4e487b7100000000000000000000000000000000000000000000000000000000600052601160045260246000fd5b6000611ba882611466565b91507fffffffffffffffffffffffffffffffffffffffffffffffffffffffffffffffff8203611bda57611bd9611b6e565b5b600182019050919050565b7f55736572206e6f7420726567697374657265642e000000000000000000000000600082015250565b6000611c1b6014836116ee565b9150611c2682611be5565b602082019050919050565b60006020820190508181036000830152611c4a81611c0e565b9050919050565b7f55736572206e6f742072656769737465726564206161612e0000000000000000600082015250565b6000611c876018836116ee565b9150611c9282611c51565b602082019050919050565b60006020820190508181036000830152611cb681611c7a565b9050919050565b611cc6816117e8565b82525050565b6000602082019050611ce16000830184611cbd565b92915050565b7f5573657220616c7265616479206120636f6e6e6469646174652e000000000000600082015250565b6000611d1d601a836116ee565b9150611d2882611ce7565b602082019050919050565b60006020820190508181036000830152611d4c81611d10565b9050919050565b60008190508160005260206000209050919050565b60006020601f8301049050919050565b600082821b905092915050565b600060088302611db57fffffffffffffffffffffffffffffffffffffffffffffffffffffffffffffffff82611d78565b611dbf8683611d78565b95508019841693508086168417925050509392505050565b6000819050919050565b6000611dfc611df7611df284611466565b611dd7565b611466565b9050919050565b6000819050919050565b611e1683611de1565b611e2a611e2282611e03565b848454611d85565b825550505050565b600090565b611e3f611e32565b611e4a818484611e0d565b505050565b5b81811015611e6e57611e63600082611e37565b600181019050611e50565b5050565b601f821115611eb357611e8481611d53565b611e8d84611d68565b81016020851015611e9c578190505b611eb0611ea885611d68565b830182611e4f565b50505b505050565b600082821c905092915050565b6000611ed660001984600802611eb8565b1980831691505092915050565b6000611eef8383611ec5565b9150826002028217905092915050565b611f088261150e565b67ffffffffffffffff811115611f2157611f20611893565b5b611f2b8254611b3d565b611f36828285611e72565b600060209050601f831160018114611f695760008415611f57578287015190505b611f618582611ee3565b865550611fc9565b601f198416611f7786611d53565b60005b82811015611f9f57848901518255600182019150602085019450602081019050611f7a565b86831015611fbc5784890151611fb8601f891682611ec5565b8355505b6001600288020188555050505b505050505050565b6000611fdc826114f5565b91507f7fffffffffffffffffffffffffffffffffffffffffffffffffffffffffffffff820361200e5761200d611b6e565b5b600182019050919050565b6000815461202681611b3d565b61203081866116ee565b9450600182166000811461204b576001811461206157612094565b60ff198316865281151560200286019350612094565b61206a85611d53565b60005b8381101561208c5781548189015260018201915060208101905061206d565b808801955050505b50505092915050565b60006040820190506120b26000830185611cbd565b81810360208301526120c48184612019565b90509392505050565b7f5573657220616c726561647920726567697374657265642e2061616100000000600082015250565b6000612103601c836116ee565b915061210e826120cd565b602082019050919050565b60006020820190508181036000830152612132816120f6565b9050919050565b7f757365726e616d652073686f756c64206e6f74206265206e756c6c0000000000600082015250565b600061216f601b836116ee565b915061217a82612139565b602082019050919050565b6000602082019050818103600083015261219e81612162565b9050919050565b60006040820190506121ba6000830185611cbd565b81810360208301526121cc81846116ff565b90509392505050565b600060608201905081810360008301526121ef81866116ff565b90506121fe6020830185611cbd565b818103604083015261221081846116ff565b9050949350505050565b6000606082019050818103600083015261223481866116ff565b9050818103602083015261224881856116ff565b90506122576040830184611cbd565b949350505050565b7f4e487b7100000000000000000000000000000000000000000000000000000000600052605160045260246000fdfea26469706673582212206f74dc677c978da5b22590d6a4042fb15e77ce5fd65a8a2264599e6b507612a564736f6c63430008180033",
  "linkReferences": {},
  "deployedLinkReferences": {}
}