{
  "_format": "hh-sol-artifact-1",
  "contractName": "Voting",
  "sourceName": "contracts/Voting.sol",
  "abi": [
    {
      "inputs": [],
      "stateMutability": "nonpayable",
      "type": "constructor"
    },
    {
      "anonymous": false,
      "inputs": [
        {
          "indexed": false,
          "internalType": "address",
          "name": "user",
          "type": "address"
        },
        {
          "indexed": false,
          "internalType": "string",
          "name": "username",
          "type": "string"
        }
      ],
      "name": "UserCondidate",
      "type": "event"
    },
    {
      "anonymous": false,
      "inputs": [
        {
          "indexed": false,
          "internalType": "address",
          "name": "user",
          "type": "address"
        }
      ],
      "name": "UserLoggedIn",
      "type": "event"
    },
    {
      "anonymous": false,
      "inputs": [
        {
          "indexed": false,
          "internalType": "address",
          "name": "user",
          "type": "address"
        },
        {
          "indexed": false,
          "internalType": "string",
          "name": "username",
          "type": "string"
        }
      ],
      "name": "UserRegistered",
      "type": "event"
    },
    {
      "inputs": [
        {
          "internalType": "uint256",
          "name": "",
          "type": "uint256"
        }
      ],
      "name": "candidates",
      "outputs": [
        {
          "internalType": "uint256",
          "name": "id",
          "type": "uint256"
        },
        {
          "internalType": "string",
          "name": "name",
          "type": "string"
        },
        {
          "internalType": "uint256",
          "name": "voteCount",
          "type": "uint256"
        }
      ],
      "stateMutability": "view",
      "type": "function"
    },
    {
      "inputs": [
        {
          "internalType": "address",
          "name": "",
          "type": "address"
        }
      ],
      "name": "condidatesapplied",
      "outputs": [
        {
          "internalType": "bool",
          "name": "",
          "type": "bool"
        }
      ],
      "stateMutability": "view",
      "type": "function"
    },
    {
      "inputs": [
        {
          "internalType": "uint256",
          "name": "_candidateId",
          "type": "uint256"
        }
      ],
      "name": "getCandidate",
      "outputs": [
        {
          "internalType": "string",
          "name": "name",
          "type": "string"
        },
        {
          "internalType": "uint256",
          "name": "voteCount",
          "type": "uint256"
        }
      ],
      "stateMutability": "view",
      "type": "function"
    },
    {
      "inputs": [],
      "name": "getCandidateCount",
      "outputs": [
        {
          "internalType": "uint256",
          "name": "",
          "type": "uint256"
        }
      ],
      "stateMutability": "view",
      "type": "function"
    },
    {
      "inputs": [
        {
          "internalType": "address",
          "name": "user",
          "type": "address"
        }
      ],
      "name": "getUsername",
      "outputs": [
        {
          "internalType": "string",
          "name": "",
          "type": "string"
        }
      ],
      "stateMutability": "view",
      "type": "function"
    },
    {
      "inputs": [],
      "name": "login",
      "outputs": [],
      "stateMutability": "nonpayable",
      "type": "function"
    },
    {
      "inputs": [],
      "name": "makeMeCondidate",
      "outputs": [],
      "stateMutability": "nonpayable",
      "type": "function"
    },
    {
      "inputs": [
        {
          "internalType": "string",
          "name": "username",
          "type": "string"
        }
      ],
      "name": "register",
      "outputs": [],
      "stateMutability": "nonpayable",
      "type": "function"
    },
    {
      "inputs": [
        {
          "internalType": "uint256",
          "name": "_candidateId",
          "type": "uint256"
        }
      ],
      "name": "vote",
      "outputs": [],
      "stateMutability": "nonpayable",
      "type": "function"
    },
    {
      "inputs": [
        {
          "internalType": "address",
          "name": "",
          "type": "address"
        }
      ],
      "name": "voters",
      "outputs": [
        {
          "internalType": "bool",
          "name": "",
          "type": "bool"
        }
      ],
      "stateMutability": "view",
      "type": "function"
    }
  ],
  "bytecode": "0x60806040526000805534801561001457600080fd5b506116c6806100246000396000f3fe608060405234801561001057600080fd5b506004361061009e5760003560e01c8063b34e97e811610066578063b34e97e814610170578063c9b3c76b1461017a578063ce43c032146101aa578063ed5fe08b146101da578063f2c298be146101e45761009e565b80630121b93f146100a357806330a56347146100bf5780633477ee2e146100dd57806335b8e8201461010f578063a3ec138d14610140575b600080fd5b6100bd60048036038101906100b89190610c2c565b610200565b005b6100c7610377565b6040516100d49190610c68565b60405180910390f35b6100f760048036038101906100f29190610c2c565b610384565b60405161010693929190610d13565b60405180910390f35b61012960048036038101906101249190610c2c565b610446565b604051610137929190610d51565b60405180910390f35b61015a60048036038101906101559190610ddf565b610562565b6040516101679190610e27565b60405180910390f35b610178610582565b005b610194600480360381019061018f9190610ddf565b610647565b6040516101a19190610e27565b60405180910390f35b6101c460048036038101906101bf9190610ddf565b610667565b6040516101d19190610e42565b60405180910390f35b6101e26107c4565b005b6101fe60048036038101906101f99190610f99565b610a75565b005b600360003373ffffffffffffffffffffffffffffffffffffffff1673ffffffffffffffffffffffffffffffffffffffff16815260200190815260200160002060009054906101000a900460ff161561028d576040517f08c379a00000000000000000000000000000000000000000000000000000000081526004016102849061102e565b60405180910390fd5b600081101580156102a2575060058054905081105b6102e1576040517f08c379a00000000000000000000000000000000000000000000000000000000081526004016102d89061109a565b60405180910390fd5b6001600360003373ffffffffffffffffffffffffffffffffffffffff1673ffffffffffffffffffffffffffffffffffffffff16815260200190815260200160002060006101000a81548160ff0219169083151502179055506005818154811061034d5761034c6110ba565b5b9060005260206000209060030201600201600081548092919061036f90611118565b919050555050565b6000600580549050905090565b6005818154811061039457600080fd5b90600052602060002090600302016000915090508060000154908060010180546103bd9061118f565b80601f01602080910402602001604051908101604052809291908181526020018280546103e99061118f565b80156104365780601f1061040b57610100808354040283529160200191610436565b820191906000526020600020905b81548152906001019060200180831161041957829003601f168201915b5050505050908060020154905083565b6060600080831015801561045e575060058054905083105b61049d576040517f08c379a00000000000000000000000000000000000000000000000000000000081526004016104949061109a565b60405180910390fd5b6000600584815481106104b3576104b26110ba565b5b906000526020600020906003020190508060010181600201548180546104d89061118f565b80601f01602080910402602001604051908101604052809291908181526020018280546105049061118f565b80156105515780601f1061052657610100808354040283529160200191610551565b820191906000526020600020905b81548152906001019060200180831161053457829003601f168201915b505050505091509250925050915091565b60036020528060005260406000206000915054906101000a900460ff1681565b600160003373ffffffffffffffffffffffffffffffffffffffff1673ffffffffffffffffffffffffffffffffffffffff16815260200190815260200160002060009054906101000a900460ff1661060e576040517f08c379a00000000000000000000000000000000000000000000000000000000081526004016106059061120c565b60405180910390fd5b7f8d15fde878cff665868ed7579eb5081db6508d4249df61dcdd7699a5301d98743360405161063d919061123b565b60405180910390a1565b60046020528060005260406000206000915054906101000a900460ff1681565b6060600160008373ffffffffffffffffffffffffffffffffffffffff1673ffffffffffffffffffffffffffffffffffffffff16815260200190815260200160002060009054906101000a900460ff166106f5576040517f08c379a00000000000000000000000000000000000000000000000000000000081526004016106ec9061120c565b60405180910390fd5b600260008373ffffffffffffffffffffffffffffffffffffffff1673ffffffffffffffffffffffffffffffffffffffff168152602001908152602001600020805461073f9061118f565b80601f016020809104026020016040519081016040528092919081815260200182805461076b9061118f565b80156107b85780601f1061078d576101008083540402835291602001916107b8565b820191906000526020600020905b81548152906001019060200180831161079b57829003601f168201915b50505050509050919050565b600460003373ffffffffffffffffffffffffffffffffffffffff1673ffffffffffffffffffffffffffffffffffffffff16815260200190815260200160002060009054906101000a900460ff1615610851576040517f08c379a0000000000000000000000000000000000000000000000000000000008152600401610848906112a2565b60405180910390fd5b6001600460003373ffffffffffffffffffffffffffffffffffffffff1673ffffffffffffffffffffffffffffffffffffffff16815260200190815260200160002060006101000a81548160ff021916908315150217905550600560405180606001604052806000548152602001600260003373ffffffffffffffffffffffffffffffffffffffff1673ffffffffffffffffffffffffffffffffffffffff16815260200190815260200160002080546109089061118f565b80601f01602080910402602001604051908101604052809291908181526020018280546109349061118f565b80156109815780601f1061095657610100808354040283529160200191610981565b820191906000526020600020905b81548152906001019060200180831161096457829003601f168201915b50505050508152602001600081525090806001815401808255809150506001900390600052602060002090600302016000909190919091506000820151816000015560208201518160010190816109d8919061146e565b506040820151816002015550506000808154809291906109f790611118565b91905055507f249b799d1abf6382f435c2bdbd2fe704b5e053aaee4f68240d227391d4c1e3d133600260003373ffffffffffffffffffffffffffffffffffffffff1673ffffffffffffffffffffffffffffffffffffffff168152602001908152602001600020604051610a6b9291906115c4565b60405180910390a1565b600160003373ffffffffffffffffffffffffffffffffffffffff1673ffffffffffffffffffffffffffffffffffffffff16815260200190815260200160002060009054906101000a900460ff1615610b02576040517f08c379a0000000000000000000000000000000000000000000000000000000008152600401610af990611640565b60405180910390fd5b60018060003373ffffffffffffffffffffffffffffffffffffffff1673ffffffffffffffffffffffffffffffffffffffff16815260200190815260200160002060006101000a81548160ff02191690831515021790555080600260003373ffffffffffffffffffffffffffffffffffffffff1673ffffffffffffffffffffffffffffffffffffffff1681526020019081526020016000209081610ba5919061146e565b507f48cac28ad4dc618e15f4c2dd5e97751182f166de97b25618318b2112aa951a2f3382604051610bd7929190611660565b60405180910390a150565b6000604051905090565b600080fd5b600080fd5b6000819050919050565b610c0981610bf6565b8114610c1457600080fd5b50565b600081359050610c2681610c00565b92915050565b600060208284031215610c4257610c41610bec565b5b6000610c5084828501610c17565b91505092915050565b610c6281610bf6565b82525050565b6000602082019050610c7d6000830184610c59565b92915050565b600081519050919050565b600082825260208201905092915050565b60005b83811015610cbd578082015181840152602081019050610ca2565b60008484015250505050565b6000601f19601f8301169050919050565b6000610ce582610c83565b610cef8185610c8e565b9350610cff818560208601610c9f565b610d0881610cc9565b840191505092915050565b6000606082019050610d286000830186610c59565b8181036020830152610d3a8185610cda565b9050610d496040830184610c59565b949350505050565b60006040820190508181036000830152610d6b8185610cda565b9050610d7a6020830184610c59565b9392505050565b600073ffffffffffffffffffffffffffffffffffffffff82169050919050565b6000610dac82610d81565b9050919050565b610dbc81610da1565b8114610dc757600080fd5b50565b600081359050610dd981610db3565b92915050565b600060208284031215610df557610df4610bec565b5b6000610e0384828501610dca565b91505092915050565b60008115159050919050565b610e2181610e0c565b82525050565b6000602082019050610e3c6000830184610e18565b92915050565b60006020820190508181036000830152610e5c8184610cda565b905092915050565b600080fd5b600080fd5b7f4e487b7100000000000000000000000000000000000000000000000000000000600052604160045260246000fd5b610ea682610cc9565b810181811067ffffffffffffffff82111715610ec557610ec4610e6e565b5b80604052505050565b6000610ed8610be2565b9050610ee48282610e9d565b919050565b600067ffffffffffffffff821115610f0457610f03610e6e565b5b610f0d82610cc9565b9050602081019050919050565b82818337600083830152505050565b6000610f3c610f3784610ee9565b610ece565b905082815260208101848484011115610f5857610f57610e69565b5b610f63848285610f1a565b509392505050565b600082601f830112610f8057610f7f610e64565b5b8135610f90848260208601610f29565b91505092915050565b600060208284031215610faf57610fae610bec565b5b600082013567ffffffffffffffff811115610fcd57610fcc610bf1565b5b610fd984828501610f6b565b91505092915050565b7f596f75206861766520616c726561647920766f7465642e000000000000000000600082015250565b6000611018601783610c8e565b915061102382610fe2565b602082019050919050565b600060208201905081810360008301526110478161100b565b9050919050565b7f496e76616c69642063616e6469646174652049442e0000000000000000000000600082015250565b6000611084601583610c8e565b915061108f8261104e565b602082019050919050565b600060208201905081810360008301526110b381611077565b9050919050565b7f4e487b7100000000000000000000000000000000000000000000000000000000600052603260045260246000fd5b7f4e487b7100000000000000000000000000000000000000000000000000000000600052601160045260246000fd5b600061112382610bf6565b91507fffffffffffffffffffffffffffffffffffffffffffffffffffffffffffffffff8203611155576111546110e9565b5b600182019050919050565b7f4e487b7100000000000000000000000000000000000000000000000000000000600052602260045260246000fd5b600060028204905060018216806111a757607f821691505b6020821081036111ba576111b9611160565b5b50919050565b7f55736572206e6f7420726567697374657265642e000000000000000000000000600082015250565b60006111f6601483610c8e565b9150611201826111c0565b602082019050919050565b60006020820190508181036000830152611225816111e9565b9050919050565b61123581610da1565b82525050565b6000602082019050611250600083018461122c565b92915050565b7f5573657220616c7265616479206120636f6e6e6469646174652e000000000000600082015250565b600061128c601a83610c8e565b915061129782611256565b602082019050919050565b600060208201905081810360008301526112bb8161127f565b9050919050565b60008190508160005260206000209050919050565b60006020601f8301049050919050565b600082821b905092915050565b6000600883026113247fffffffffffffffffffffffffffffffffffffffffffffffffffffffffffffffff826112e7565b61132e86836112e7565b95508019841693508086168417925050509392505050565b6000819050919050565b600061136b61136661136184610bf6565b611346565b610bf6565b9050919050565b6000819050919050565b61138583611350565b61139961139182611372565b8484546112f4565b825550505050565b600090565b6113ae6113a1565b6113b981848461137c565b505050565b5b818110156113dd576113d26000826113a6565b6001810190506113bf565b5050565b601f821115611422576113f3816112c2565b6113fc846112d7565b8101602085101561140b578190505b61141f611417856112d7565b8301826113be565b50505b505050565b600082821c905092915050565b600061144560001984600802611427565b1980831691505092915050565b600061145e8383611434565b9150826002028217905092915050565b61147782610c83565b67ffffffffffffffff8111156114905761148f610e6e565b5b61149a825461118f565b6114a58282856113e1565b600060209050601f8311600181146114d857600084156114c6578287015190505b6114d08582611452565b865550611538565b601f1984166114e6866112c2565b60005b8281101561150e578489015182556001820191506020850194506020810190506114e9565b8683101561152b5784890151611527601f891682611434565b8355505b6001600288020188555050505b505050505050565b6000815461154d8161118f565b6115578186610c8e565b945060018216600081146115725760018114611588576115bb565b60ff1983168652811515602002860193506115bb565b611591856112c2565b60005b838110156115b357815481890152600182019150602081019050611594565b808801955050505b50505092915050565b60006040820190506115d9600083018561122c565b81810360208301526115eb8184611540565b90509392505050565b7f5573657220616c726561647920726567697374657265642e0000000000000000600082015250565b600061162a601883610c8e565b9150611635826115f4565b602082019050919050565b600060208201905081810360008301526116598161161d565b9050919050565b6000604082019050611675600083018561122c565b81810360208301526116878184610cda565b9050939250505056fea26469706673582212203f3dbd45699990c9baff3f299327a5d98a4ff36555e8c3b47cec1d91011634b864736f6c63430008180033",
  "linkReferences": {},
  "deployedLinkReferences": {}
}